:020000040000FA
:0600000004EF07F01200FE
:020006001200E6
:0600080006EF06F01200F5
:02000E000100EF
:0C001000330E0000C300000001000000DF
:04001C00D9CFE6FF53
:10002000E1CFD9FFE652DF6A080EDF5C19E2DF504C
:10003000E76EFD0EDBCFE9FFFE0EDBCFEAFFE750F8
:10004000E926000EEA22EFCF00F0DF50EA6A600FE7
:10005000E96E000EEA22EF50005C02E1DF2AE4D7ED
:10006000080EDF5C02E1000E1AD0DF50EA6A600F72
:10007000E96E000EEA22EFCF00F0DF50E76EFD0ED2
:10008000DBCFE9FFFE0EDBCFEAFFE750E926000EEB
:10009000EA22EF50005C02E2FF0E01D0010EE552B1
:1000A000E552E7CFD9FF1200D9CFE6FFE1CFD9FF64
:1000B000E652DF6A080EDF5C13E2DF50EA6A600F87
:1000C000E96E000EEA22EF50E66EDF50EA6A740F26
:1000D000E96E000EEA22E552E750EF6EDF2AEAD71A
:1000E000E552E552E7CFD9FF1200D9CFE6FFE1CFC5
:1000F000D9FFFE0EDB506F6EE00E6E14006EFE0E2A
:10010000DB50005CF9E1E552E7CFD9FF1200D9CF0F
:10011000E6FFE1CFD9FF800EE66EE7DFE552FE0E87
:10012000DBCF0EFFE66AE1DFE552E552E7CFD9FF0C
:100130001200D9CFE6FFE1CFD9FF040EE126FD0E74
:10014000DBCFE9FFFE0EDBCFEAFFEF98FD0EDBCF42
:10015000E9FFFE0EDBCFEAFF040EE926000EEA22DD
:100160000F0EEF140009EF6EFD0EDBCFE9FFFE0E60
:10017000DBCFEAFF040EE926000EEA22EF500F0B58
:1001800008080EE2FD0EDBCFE9FFFE0EDBCFEAFF33
:10019000040EE926000EEA22F00EEF140809EF6EB5
:1001A000FD0EDBCFE9FFFE0EDBCFEAFFEE52EF5094
:1001B000E00BE838E840006EFD0EDBCFE9FFFE0EF5
:1001C000DBCFEAFF0050070BF36EF80EEF14F310CD
:1001D000EF6EFD0EDBCFE9FFFE0EDBCFEAFFEE5246
:1001E000EF50030BE76E030EE7CFDBFFFD0EDBCF17
:1001F000E9FFFE0EDBCFEAFFEE52EF501C0B080DBD
:10020000F350E66EFD0EDBCFE9FFFE0EDBCFEAFF1B
:10021000EE52E552E750EF6E030EDB500809006E18
:10022000FD0EDBCFE9FFFE0EDBCFEAFFEE52005002
:10023000EF1260B6FED7D950010FE96EDACFEAFFB0
:10024000610EEE6E0F0EED6EDF6AFD0EDBCFE9FF85
:10025000FE0EDBCFEAFF040EE926000EEA22EF5085
:100260000F0B050FDF5C1EE2FD0EDBCFE9FFFE0E7C
:10027000DBCFEAFFDF50E924E96E000EEA20EA6EE8
:10028000EF50E66E010EDBCFE9FF020EDBCFEAFF97
:10029000E552E750EF6EDF2A010EDB2A020ED5E3AE
:1002A000DB2AD3D76086040EE15C02E2E16AE55204
:1002B000E16EE552E7CFD9FF1200D9CFE6FFE1CFDB
:1002C000D9FF00016F8B6F8D6F9FEE0E706F71699C
:1002D0007391739373957387FE0EDB0420E06D5169
:1002E000725D3EE1740EE66E000EE66E97DEE5523C
:1002F000E552FF0814E0D8DE0001FE0E726FA50E75
:10030000776E6F0EE66E000EE66E13DFE552E55275
:10031000E668FDDEE55200016E816E9321D0C4DEF9
:1003200068C072F0A50E776E6F0EE66E000EE66E78
:1003300000DFE552E552800E0001681504E0F80E7A
:100340006815F80808E16E9168C06DF068C0E6FFB6
:10035000DEDEE55205D06E83696B6A6B6B6B6C6B8E
:10036000E552E7CFD9FF1200D9CFE6FFE1CFD9FFA1
:10037000E652DF6A00017E5107E16EA102D0020E53
:1003800001D0010EDF6E4AD07C510D0DF3CFE9FF95
:10039000F4CFEAFF7F0EE926000EEA22EECF00F04E
:1003A000EECF01F0EECF02F0EECF03F0EECF04F08F
:1003B000EECF05F0EECF06F0EECF07F0EECF08F06F
:1003C000EECF09F0EECF0AF0EECF0BF0EFCF0CF04E
:1003D000FD0EDBCFE9FFFE0EDBCFEAFF00C0EEFF34
:1003E00001C0EEFF02C0EEFF03C0EEFF04C0EEFF4F
:1003F00005C0EEFF06C0EEFF07C0EEFF08C0EEFF2F
:1004000009C0EEFF0AC0EEFF0BC0EEFF0CC0EEFF0E
:100410007C2B030E7C5D01E37C6B7E07DF50E55295
:10042000E552E7CFD9FF1200D9CFE6FFE1CFD9FFE0
:10043000E652DF6AA39800016EA102D0020E4ED0F0
:10044000010EA85D06E2A82BA72B010EA75D01E314
:10045000A76BFD0EDBCFE9FFFE0EDBCFEAFFEECF91
:1004600000F0EECF01F0EECF02F0EECF03F0EECFD2
:1004700004F0EECF05F0EECF06F0EECF07F0EECFB2
:1004800008F0EECF09F0EECF0AF0EECF0BF0EFCF91
:100490000CF0A7510D0DF3CFE9FFF4CFEAFFA90E41
:1004A000E926000EEA2200C0EEFF01C0EEFF02C006
:1004B000EEFF03C0EEFF04C0EEFF05C0EEFF06C076
:1004C000EEFF07C0EEFF08C0EEFF09C0EEFF0AC056
:1004D000EEFF0BC0EEFF0CC0EEFF01D0DF6EDF5071
:1004E000E552E552E7CFD9FF1200D9CFE6FFE1CFC1
:1004F000D9FFE6520001010E6E6F696B6A6B6B6B80
:100500006C6BA66BA769A86B7C6B7D697E6BFE0E1E
:10051000DB500BE0010E6D6F676B666B656B646B98
:10052000636B626B616B320E606F6DC068F0800E42
:10053000E66EDBDDE552A00E776E0D01E00EF86F82
:100540000F01070E186F880E196F1A6B1B6B1C6B4F
:10055000080E1D6F1E691F6B070E006F880E016F5E
:10056000080E096F0A690D6F0E690D015C0EF06FC0
:10057000E06BE16BE26B0D0ED46FD56B010E706E0C
:10058000BF0E716E870E726EE66AAFDDE552A50E84
:10059000776E030E606E010EE66E8FDEE552E55259
:1005A000E552E7CFD9FF1200D9CFE6FFE1CFD9FF5F
:1005B000020EE126FB0EDB5000016927FC0EDB502A
:1005C0006A23FD0EDB506B23FE0EDB506C2320D81C
:1005D00001D900016E51020B11E0900E695DD00E41
:1005E0006A59030E6B59000E6C5908E36E916E93B5
:1005F00068C06DF068C0E6FF8ADDE552020EE15C7E
:1006000002E2E16AE552E16EE552E7CFD9FF12005E
:10061000D9CFE6FFE1CFD9FF040EE126020EDB6A57
:1006200074AEB1D0070E6F14B009776E610EDE6E36
:100630000F0EDD6E030EDB6A050EF36E030EDBCFCD
:10064000F4FFF350F45C17E2DECFE9FFDDCFEAFF01
:10065000EF50E66E030EDB50EA6A6F0FE96E000E94
:10066000EA22E552E750EF6E030EDB2ADF2A010E85
:10067000E3E3DB2AE1D7000173510F0B080804E222
:100680007391739373957387030EDB6A73510F0B2A
:10069000F36E030EDBCFF4FFF350F45C17E2DECF12
:1006A000E9FFDDCFEAFFEF50E66E030EDB50EA6AAA
:1006B000740FE96E000EEA22E552E750EF6E030E6A
:1006C000DB2ADF2A010EE2E3DB2AE0D7609E749E7C
:1006D000749EE00E7015E840E840E8401F0BE76E9E
:1006E000030EE7CFDBFF6F51070B070B200DF3CF96
:1006F00000F0030EDBCFE6FF7015E552E710F310B4
:10070000706FE850EE0A0BE0040A0EE174510CE140
:10071000EA0E755D09E1765107E13FD881D7020EF7
:10072000E66ECBDDE5527CD7030E00017E5D06E26E
:100730007E2B7D2B030E7D5D01E37D6B7D510D0DC9
:10074000F3CFE9FFF4CFEAFF7F0EE926000EEA229D
:100750006FC0EEFF70C0EEFF71C0EEFF72C0EEFF23
:1007600073C0EEFF74C0EEFF75C0EEFF76C0EEFF03
:1007700077C0EEFF78C0EEFF79C0EEFF7AC0EEFFE3
:100780007BC0EEFF4DD7040EE15C02E2E16AE55268
:10079000E16EE552E7CFD9FF120000016EA103D050
:1007A000FE0E726F02D06DC072F06F8B6F8D6F9FF7
:1007B000EE0E706F7169739173937395738774DC28
:1007C000A50E776E6F0EE66E000EE66EB2DCE55299
:1007D000E5521200D9CFE6FFE1CFD9FF020EE126A4
:1007E000040EDF6E0001A85103E10001C36B52D07B
:1007F0006EB10ED00001C3510EE0C305F76A2E0F93
:10080000F66E0E0EF7220800F550776E60A602D045
:10081000020E41D0C36B0001A85100083BE2050E57
:100820000001C35D37E2C351F76A2E0FF66E0E0E5C
:10083000F7220800F550776E60B629D00001A65166
:100840000D0DF3CFE9FFF4CFEAFFA90EE926000E64
:10085000EA22030EE926000EEA226DC0EFFFA65140
:100860000D0DF3CF00F0F4CF01F0A90E0026000E1D
:10087000012200C0E6FF01C0E6FF5BDCE552E55265
:100880000001A62B010EA65D01E3A66BA8070001DF
:10089000C32BC1D7000E006E020EE15C02E2E16ADA
:0E08A000E552E16E0050E552E7CFD9FF12009D
:0208AE00D9CFA0
:1008B000E6FFE1CFD9FF020EE126FD0EDBCFE9FF17
:1008C000FE0EDBCFEAFFEF96FD0EDBCFE9FFFE0E5B
:1008D000DBCFEAFF1F0EEF146009EF6EFD0EDBCFDA
:1008E000E9FFFE0EDBCFEAFF020EE926000EEA2248
:1008F000EF68FD0EDBCFE9FFFE0EDBCFEAFF020E55
:10090000E926000EEA22FC0EDBCFEFFFFD0EDBCF67
:10091000E9FFFE0EDBCFEAFF040EE926000EEA2215
:10092000F00EEF140209EF6EFD0EDBCFE9FFFE0EB5
:10093000DBCFEAFFEE52EF68DE6ADD6ADECF00F061
:10094000DDCF01F0020E005C000E015826E2FA0E27
:10095000DBCF02F0FB0EDBCF03F0DE500224E96EAA
:10096000DD500320EA6EEF50E66EFD0EDBCFE9FFAF
:10097000FE0EDBCFEAFF050EE926000EEA22DE506E
:10098000E924E96EDD50EA20EA6EE552E750EF6EA9
:10099000DF2A010ED3E3DB2AD1D7FD0EDBCFE6FF42
:1009A000FE0EDBCFE6FF14EC02F0E552E552000943
:1009B0000CE0050EE66EE66AE66AE66AD4EC02F042
:1009C000E552E552E552E552E8D7020EE15C02E25B
:1009D000E16AE552E16EE552E7CFD9FF1200D9CFC7
:1009E000E6FFE1CFD9FFFD0EDBCFE9FFFE0EDBCF47
:1009F000EAFFEF96FD0EDBCFE9FFFE0EDBCFEAFF4D
:100A00001F0EEF146009EF6EFD0EDBCFE9FFFE0E47
:100A1000DBCFEAFF020EE926000EEA22FB0EDBCF57
:100A2000EFFFFD0EDBCFE9FFFE0EDBCFEAFF040E8A
:100A3000E926000EEA22F00EEF140109EF6EFD0E1A
:100A4000DBCFE9FFFE0EDBCFEAFFEE52010EEF6EC9
:100A5000FD0EDBCFE9FFFE0EDBCFEAFF050EE92638
:100A6000000EEA22F90EDBCFEFFFFD0EDBCFE6FF33
:100A7000FE0EDBCFE6FF14EC02F0E552E552000972
:100A80000CE0050EE66EE66AE66AE66AD4EC02F071
:100A9000E552E552E552E552E8D7E552E7CFD9FFF6
:100AA0001200D38CD38AD3889B8C0A0EE66EC6ECD8
:100AB00006F0E55212000F0EC16E020E926E080E85
:100AC000936E800E946E8B6E51EF05F0D9CFE6FFDA
:100AD000E1CFD9FFACA2FED7FD0EDBCFE6FFDDEC08
:100AE00006F0E552E552E7CFD9FF1200D9CFE6FF75
:100AF000E1CFD9FFFF0EE66EE66AE8DFE552E55288
:100B0000FE0EDBCF00F0016A00BE016800C0E6FF08
:100B100001C0E6FFDBDFE552E552FD0EDBCF00F062
:100B2000016A00BE016800C0E6FF01C0E6FFCEDF3B
:100B3000E552E552FC0EDBCF00F0016A00BE016811
:100B400000C0E6FF01C0E6FFC1DFE552E552E55215
:060B5000E7CFD9FF1200FF
:0A0B5600F29E0001C06B82A802D0DD
:100B6000C08101D0C09182AA02D0C08301D0C093BD
:100B700081A002D0C08501D0C09582AE02D0C087CE
:100B800001D0C09782AC02D0C08901D0C099F28E4A
:100B9000C0511200D9CFE6FFE1CFD9FFFE0EDB50E6
:100BA00004E089800001C18103D089900001C191D6
:100BB000E552E7CFD9FF1200D9CFE6FFE1CFD9FF49
:100BC000FE0EDB5006E08B808B82060E0001C11307
:100BD00005D08B908B92F90E0001C117E552E7CF3B
:100BE000D9FF12005BEC05F0938092909382949071
:100BF00094929488948A948C948EF288F292F18CD8
:100C0000F086F090F18AF08CF28EFFD7DACFE4FF15
:100C1000E2CFDAFFE9CFE4FFEACFE4FFF6CFE4FF6B
:100C2000F7CFE4FFF5CFE4FFF3CFE4FFF4CFE4FF29
:100C3000FACFE4FF00EE0DF0020EE80403E3EECF7E
:100C4000E4FFFBD700EE00F00D0EE80403E3EECF67
:100C5000E4FFFBD7E652F29EF250100B11E0F25087
:100C6000020B0EE0F1AC06D0010EE66E93DFE5520A
:100C7000F19C04D0E66A8EDFE552F18CF29212D03C
:100C8000F050080B0FE0F050010B0CE0F1AA06D079
:100C9000010EE66E91DFE552F19A04D0E66A8CDF30
:100CA000E552F18AF28EE55200EE0CF00D0EE804EA
:100CB00003E3E5CFEDFFFBD700EE0EF0020EE804F4
:100CC00003E3E5CFEDFFFBD7E5CFFAFFE5CFF4FF78
:100CD000E5CFF3FFE5CFF5FFE5CFF7FFE5CFF6FF73
:0E0CE000E5CFEAFFE5CFE9FFE5CFDAFF11002F
:020CEE000E0EE8
:100CF000F66E000EF76E000EF86E00010900F5505A
:100D0000BB6F0900F550BC6F03E1BB6701D03DD05C
:100D10000900F550B66F0900F550B76F0900F5509E
:100D2000B86F09000900F550E96E0900F550EA6E48
:100D3000090009000900F550B96F0900F550BA6FB4
:100D400009000900F6CFBDF0F7CFBEF0F8CFBFF035
:100D5000B6C0F6FFB7C0F7FFB8C0F8FF0001B9533F
:100D600002E1BA5307E00900F550EE6EB907F8E268
:100D7000BA07F9D7BDC0F6FFBEC0F7FFBFC0F8FF86
:0C0D80000001BB07000EBC5BBFD71200D7
:040D8C00FF0EE35023
:100D9000106EEF0E01D0F30EE76EE72ECDEF06F0EA
:100DA0000C0E0F6EE76AE72ED3EF06F00F2ED2EF90
:0A0DB00006F0102ECBEF06F0120043
:060DBA00D9CFE6FFDACFFD
:100DC000E6FFE1CFD9FFE2CFDAFFACAC04D0AC90C4
:100DD0000001C2B3AC80FD0EDB50AD6EE552E5CF35
:080DE000DAFFE7CFD9FF120092
:080DE800000EF36E00EE00F0B6
:100DF0000D0E01D81200EA6002D0EE6AFCD7F35063
:080E0000E9601200EE6AFCD764
:080E08001CEE00F02CEE00F0DE
:100E1000F86A0E9C77EC06F003EC00F0F2EC05F0BB
:040E2000FBD71200EA
:050E2400848397969500
:050E29008483979695FB
:020E2E008483BB
:030E3000979695FD
:010E330000BE
:020000040030CA
:0100010008F6
:0100020019E4
:010003001EDE
:00000001FF
