:020000040000FA
:0600000063EF05F01200A1
:020006001200E6
:060008006CEF04F0120091
:02000E000100EF
:0C001000F10A0000C30000000100000025
:04001C0028DB080EC7
:10002000DF5C09E21CDBEFCF00F0E3DAEF50005CAD
:1000300002E1DF2AF4D7080EDF5C02E1000E0AD0ED
:10004000D8DAEFCF00F00BDBEF50005C02E2FF0EDE
:1000500001D0010EE552AED20ADB080EDF5C0EE2E3
:10006000C8DAEF50E66EDF50EA6A740FE96E000EF0
:10007000EA22E552E750EF6EDF2AEFD7E5529AD237
:1000800094DAFE0EDB506F6EE00E6E14006EFE0E04
:10009000DB50005CF9E18ED288DA800EE66EF0DF8C
:1000A000E552FE0EDBCF0EFFE66AEADFE55282D2B2
:1000B0007CDA040EE1263CDAEF98DDDA0F0EEF145D
:1000C0000009EF6ED8DAEF500F0B080805E2D3DA1B
:1000D000F00EEF140809EF6EDDDAE00BE838E840C7
:1000E000006E26DA0050070BF36EF80EEF14F310D3
:1000F000EF6ED0DA030BE76E030EE7CFDBFFCADA51
:100100001C0B080DF350E66E13DAEE52E552E75081
:10011000EF6E030EDB500809006E0ADAEE52005053
:10012000EF1260B6FED7D950010FE96EDACFEAFFC1
:10013000610EEE6E0F0EED6EDF6A9DDAEF500F0B63
:10014000050FDF5C19E2F4D9DF50E924E96E000EF7
:10015000EA20EA6EEF50E66E010EDBCFE9FF020EF9
:10016000DBCFEAFFE552E750EF6EDF2A010EDB2A14
:10017000020EE3E3DB2AE1D76086040EE15C02E2D3
:10018000E16AE552E16E16D210DA000127DAFE0EBE
:10019000DB0418E06D51725D29E1740EE66E000E0D
:1001A000E66E3CDFE552E552FF080CE055DF00014A
:1001B000FE0E726F03DAE6686FDFE55200016E81B2
:1001C0006E9314D049DF68C072F0F8D9800E000138
:1001D000681504E0F80E6815F80803E16E9131DA4D
:1001E00005D06E83696B6A6B6B6B6C6BE3D13FDA26
:1001F00000017E5107E16EA102D0020E01D0010E76
:10020000DF6E0BD07C513ADA9AD992D9B3D97C2BD4
:10021000030E7C5D01E37C6B7E07DF50E552CAD1A3
:1002200026DAA39800016EA102D0020E0FD0010EB3
:10023000A85D06E2A82BA72B010EA75D01E3A76B23
:1002400077D97DD9A75120DA95D901D0DF6EDF505B
:10025000E552B0D1AAD9E6520001010E6E6F696B6A
:100260006A6B6B6B6C6BA66BA769A86B7C6B7D690B
:100270007E6BFE0EDB500BE0010E6D6F676B666BE5
:10028000656B646B636B626B616B320E606F6DC02C
:1002900068F0800EE66EF4DEE552A00E776E0D017A
:1002A000E00EF86F0F01070E186F880E196F1A6BAA
:1002B0001B6B1C6B080E1D6F1E691F6B070E006FFA
:1002C000880E016F080E096F0A690D6F0E690D0126
:1002D0005C0EF06FE06BE16BE26B0D0ED46FD56BD3
:1002E000010E706EBF0E716E870E726EE66AC8DE0A
:1002F000E552A50E776E030E606E010EE66E44DFCA
:10030000E552E55257D151D9020EE126FB0EDB50E2
:1003100000016927FC0EDB506A23FD0EDB506B23C6
:10032000FE0EDB506C2318D8B2D800016E51020BC0
:100330000CE0900E695DD00E6A59030E6B59000EE9
:100340006C5903E36E916E937CD9020EE15C02E27C
:10035000E16AE552E16E2ED128D9040EE126020EA3
:10036000DB6A74AE81D0070E6F14B009776E610E30
:10037000DE6E0F0EDD6E030EDB6A050E69D908E234
:100380003FD96F0FE96E000E45D9F7E3DB2AF5D7A9
:10039000000173510F0B080804E273917393739576
:1003A0007387030EDB6A73510F0B52D908E228D909
:1003B000740FE96E000E2ED9F6E3DB2AF4D7609EA7
:1003C000749E749EE00E7015E840E840E8401F0BF4
:1003D000E76E030EE7CFDBFF6F51070B070B200D16
:1003E000F3CF00F0030EDBCFE6FF7015E552E71008
:1003F000F310706FE850EE0A0BE0040A0EE174513E
:100400000CE1EA0E755D09E1765107E134D8A9D710
:10041000020EE66EB9DEE552A4D7030E00017E5D42
:1004200006E27E2B7D2B030E7D5D01E37D6B7D510E
:1004300025D96FC0EEFF70C0EEFF71C0EEFF72C035
:10044000EEFF73C0EEFF74C0EEFF75C0EEFF76C026
:10045000EEFF77C0EEFF78C0EEFF79C0EEFF7AC006
:10046000EEFF7BC0EEFF7DD7040EE15C02E2E16AA5
:10047000E552E16E9FD000016EA103D0FE0E726FB7
:1004800002D06DC072F0AAD8E7DDDEEF02F08DD8A1
:10049000020EE126040EDF6E0001A85103E1000107
:1004A000C36B3CD06EB107D00001C35107E0C30558
:1004B000BAD860A602D0020E32D0C36B0001A85198
:1004C00000082CE2050E0001C35D28E2C351ABD841
:1004D00060B621D00001A651D7D8030EE926000E40
:1004E000EA226DC0EFFFA6510D0DF3CF00F0F4CF5F
:1004F00001F0A90E0026000E012200C0E6FF01C097
:10050000E6FFD6DDE552E5520001A62B010EA65D01
:1005100001E3A66BA8070001C32BD0D7000E006E25
:10052000020EE15C02E2E16AE552E16E005042D067
:10053000FD0EDBCFE9FFFE0EDBCFEAFF1200EECFB0
:1005400000F0EECF01F0EECF02F0EECF03F0EECFF1
:1005500004F0EECF05F0EECF06F0EECF07F0EECFD1
:1005600008F0EECF09F0EECF0AF0EECF0BF0EFCFB0
:100570000CF0120000C0EEFF01C0EEFF02C0EEFF63
:1005800003C0EEFF04C0EEFF05C0EEFF06C0EEFFA5
:1005900007C0EEFF08C0EEFF09C0EEFF0AC0EEFF85
:1005A0000BC0EEFF0CC0EEFF1200D9CFE6FFE1CF8B
:1005B000D9FF1200E552E7CFD9FF1200A50E776EE2
:1005C0006F0EE66E000EE66E73DDE552E552120028
:1005D0000D0DF3CFE9FFF4CFEAFF12006F8B6F8DA3
:1005E0006F9FEE0E706F716973917393739573873C
:1005F0001200DF50EA6A600FE96E000EEA22120074
:10060000DECFE9FFDDCFEAFFEF50E66E030EDB50F1
:10061000EA6A1200EA22E552E750EF6E030EDB2A87
:10062000DF2A010E1200F76AEC0FF66E0A0EF722AF
:100630000800F550776E1200040EE926000EEA223B
:10064000120068C06DF068C0E6FF26DDE5521200BA
:10065000F36E030EDBCFF4FFF350F45C1200DF50B7
:10066000E76E66DFE750E926000EEA2212009DDF02
:10067000E652DF6A12005CDF1CEF03F0A9DF7F0E99
:10068000E926000EEA221200A3DFA90EE926000ED9
:0C069000EA2212004DDFEE52EF50120083
:04069C00BBD8020EB7
:1006A000E126C5D8EF688FD8020EBDD8FC0ECAD897
:1006B0000209EF6E88D8EE52EF68DE6ADD6ADECF9F
:1006C00000F0DDCF01F0020E005C000E01581FE2C9
:1006D000FA0EDBCF02F0FB0EDBCF03F0DE5002247C
:1006E000E96EDD500320EA6EEF50E66E6CD8050E21
:1006F0009AD8DE50E924E96EDD50EA20EA6EE55230
:10070000E750EF6EDF2A010EDAE3DB2AD8D76AD88A
:1007100002E074D8FCD7020EE15C02E2E16AE55225
:10072000E16E7DD077D883D8FB0E8CD80109EF6EAF
:100730004AD8EE52010EEF6E46D8050E74D8F90E67
:10074000DBCFEFFF4FD802E059D8FCD768D0D38C6D
:10075000D38AD3889B8C0A0EE66E25EC05F0E55211
:1007600012000F0EC16E020E926E080E936E800E76
:10077000946E8B6EA7EF03F04DD8ACA2FED7FD0EA2
:10078000DBCFE6FF3CEC05F0E55249D043D8FF0E45
:10079000E66EE66AF1DFE552E552FE0EDBCF00F0D1
:1007A000016A00BE016816D8FD0EDBCF00F0016AB9
:1007B00000BE01680FD8FC0EDBCF00F0016A00BE5E
:1007C000016808D82CD0FD0EDBCFE9FFFE0EDBCF91
:1007D000EAFF120000C0E6FF01C0E6FFCDDFE552F0
:1007E000E5521200FD0EDBCFE6FFFE0EDBCFE6FF8B
:1007F00010EC01F0E552E55200091200050EE66E1C
:10080000E66AE66AE66A83EC01F0E552E552E552F3
:10081000E5521200D9CFE6FFE1CFD9FF1200E55231
:10082000E7CFD9FF1200E926000EEA221200CBDF43
:10083000EF96C9DF1F0EEF146009EF6EC4DF020EE2
:1008400013EF04F0DBCFEFFFBEDF040EECDFF00EA2
:04085000EF1412008F
:0C085400F29E0001C06B82A802D0C0819F
:1008600001D0C09182AA02D0C08301D0C09381A0E0
:1008700002D0C08501D0C09582AE02D0C08701D021
:10088000C09782AC02D0C08901D0C099F28EC0510D
:100890001200D9CFE6FFE1CFD9FFFE0EDB0402E163
:1008A000898001D08990E552E7CFD9FF1200B1ECE1
:1008B00003F0D08EF288F292F18CF086F090F18AFB
:1008C000F08CF28E9380929093829490949294887C
:1008D000948A948C948EFFD7DACFE4FFE2CFDAFFCC
:1008E000E9CFE4FFEACFE4FFF6CFE4FFF7CFE4FF80
:1008F000F5CFE4FFF3CFE4FFF4CFE4FFFACFE4FF5A
:1009000000EE0DF0020EE80403E3EECFE4FFFBD7A8
:1009100000EE00F00D0EE80403E3EECFE4FFFBD79A
:10092000E652F29EF250100B11E0F250020B0EE074
:10093000F1AC06D0010EE66EACDFE552F19C04D0BE
:10094000E66AA7DFE552F18CF2920BD0F050080B6B
:1009500008E0F050010B05E0F1AA02D0F19A01D0B5
:10096000F18AF28EE55200EE0CF00D0EE80403E37E
:10097000E5CFEDFFFBD700EE0EF0020EE80403E337
:10098000E5CFEDFFFBD7E5CFFAFFE5CFF4FFE5CFED
:10099000F3FFE5CFF5FFE5CFF7FFE5CFF6FFE5CFB6
:0C09A000EAFFE5CFE9FFE5CFDAFF110028
:0409AC000E0EF66EC7
:1009B000000EF76E000EF86E00010900F550BB6FD7
:1009C0000900F550BC6F03E1BB6701D03DD00900C1
:1009D000F550B66F0900F550B76F0900F550B86FC4
:1009E00009000900F550E96E0900F550EA6E0900AA
:1009F00009000900F550B96F0900F550BA6F0900F8
:100A00000900F6CFBDF0F7CFBEF0F8CFBFF0B6C00B
:100A1000F6FFB7C0F7FFB8C0F8FF0001B95302E115
:100A2000BA5307E00900F550EE6EB907F8E2BA07CD
:100A3000F9D7BDC0F6FFBEC0F7FFBFC0F8FF000189
:0A0A4000BB07000EBC5BBFD712001D
:060A4A00FF0EE350106EE8
:100A5000EF0E01D0F30EE76EE72E2CEF05F00C0E33
:100A60000F6EE76AE72E32EF05F00F2E31EF05F03B
:080A7000102E2AEF05F0120020
:080A7800D9CFE6FFDACFE6FF5B
:100A8000E1CFD9FFE2CFDAFFACAC04D0AC900001EB
:100A9000C2B3AC80FD0EDB50AD6EE552E5CFDAFFA0
:060AA000E7CFD9FF1200B0
:0A0AA600000EF36E00EE00F00D0EDE
:100AB00001D81200EA6002D0EE6AFCD7F350E96078
:060AC0001200EE6AFCD7F3
:0A0AC6001CEE00F02CEE00F0F86AC0
:100AD0000E9CD6EC04F003EC00F057EC04F0FBD7CE
:020AE000120002
:050AE200848397969546
:050AE700848397969541
:040AEC0084839796D2
:010AF0009570
:010AF1000004
:020000040030CA
:0100010008F6
:0100020019E4
:010003001EDE
:00000001FF
